{
  "_format": "hh-sol-artifact-1",
  "contractName": "RoyalMinterNFT",
  "sourceName": "contracts/RoyalMinterNFT.sol",
  "abi": [
    {
      "inputs": [],
      "stateMutability": "nonpayable",
      "type": "constructor"
    },
    {
      "anonymous": false,
      "inputs": [
        {
          "indexed": true,
          "internalType": "address",
          "name": "owner",
          "type": "address"
        },
        {
          "indexed": true,
          "internalType": "address",
          "name": "approved",
          "type": "address"
        },
        {
          "indexed": true,
          "internalType": "uint256",
          "name": "tokenId",
          "type": "uint256"
        }
      ],
      "name": "Approval",
      "type": "event"
    },
    {
      "anonymous": false,
      "inputs": [
        {
          "indexed": true,
          "internalType": "address",
          "name": "owner",
          "type": "address"
        },
        {
          "indexed": true,
          "internalType": "address",
          "name": "operator",
          "type": "address"
        },
        {
          "indexed": false,
          "internalType": "bool",
          "name": "approved",
          "type": "bool"
        }
      ],
      "name": "ApprovalForAll",
      "type": "event"
    },
    {
      "anonymous": false,
      "inputs": [
        {
          "indexed": false,
          "internalType": "address",
          "name": "sender",
          "type": "address"
        },
        {
          "indexed": false,
          "internalType": "uint256",
          "name": "tokenId",
          "type": "uint256"
        }
      ],
      "name": "RoyalNftMinted",
      "type": "event"
    },
    {
      "anonymous": false,
      "inputs": [
        {
          "indexed": true,
          "internalType": "address",
          "name": "from",
          "type": "address"
        },
        {
          "indexed": true,
          "internalType": "address",
          "name": "to",
          "type": "address"
        },
        {
          "indexed": true,
          "internalType": "uint256",
          "name": "tokenId",
          "type": "uint256"
        }
      ],
      "name": "Transfer",
      "type": "event"
    },
    {
      "inputs": [
        {
          "internalType": "address",
          "name": "to",
          "type": "address"
        },
        {
          "internalType": "uint256",
          "name": "tokenId",
          "type": "uint256"
        }
      ],
      "name": "approve",
      "outputs": [],
      "stateMutability": "nonpayable",
      "type": "function"
    },
    {
      "inputs": [
        {
          "internalType": "address",
          "name": "owner",
          "type": "address"
        }
      ],
      "name": "balanceOf",
      "outputs": [
        {
          "internalType": "uint256",
          "name": "",
          "type": "uint256"
        }
      ],
      "stateMutability": "view",
      "type": "function"
    },
    {
      "inputs": [],
      "name": "createNFT",
      "outputs": [],
      "stateMutability": "nonpayable",
      "type": "function"
    },
    {
      "inputs": [
        {
          "internalType": "uint256",
          "name": "tokenId",
          "type": "uint256"
        }
      ],
      "name": "getApproved",
      "outputs": [
        {
          "internalType": "address",
          "name": "",
          "type": "address"
        }
      ],
      "stateMutability": "view",
      "type": "function"
    },
    {
      "inputs": [
        {
          "internalType": "uint256",
          "name": "tokenId",
          "type": "uint256"
        }
      ],
      "name": "getFirstWordFromArray",
      "outputs": [
        {
          "internalType": "string",
          "name": "",
          "type": "string"
        }
      ],
      "stateMutability": "view",
      "type": "function"
    },
    {
      "inputs": [
        {
          "internalType": "uint256",
          "name": "tokenId",
          "type": "uint256"
        }
      ],
      "name": "getSecondWordFromArray",
      "outputs": [
        {
          "internalType": "string",
          "name": "",
          "type": "string"
        }
      ],
      "stateMutability": "view",
      "type": "function"
    },
    {
      "inputs": [
        {
          "internalType": "uint256",
          "name": "tokenId",
          "type": "uint256"
        }
      ],
      "name": "getThirdWordFromArray",
      "outputs": [
        {
          "internalType": "string",
          "name": "",
          "type": "string"
        }
      ],
      "stateMutability": "view",
      "type": "function"
    },
    {
      "inputs": [
        {
          "internalType": "address",
          "name": "owner",
          "type": "address"
        },
        {
          "internalType": "address",
          "name": "operator",
          "type": "address"
        }
      ],
      "name": "isApprovedForAll",
      "outputs": [
        {
          "internalType": "bool",
          "name": "",
          "type": "bool"
        }
      ],
      "stateMutability": "view",
      "type": "function"
    },
    {
      "inputs": [],
      "name": "name",
      "outputs": [
        {
          "internalType": "string",
          "name": "",
          "type": "string"
        }
      ],
      "stateMutability": "view",
      "type": "function"
    },
    {
      "inputs": [
        {
          "internalType": "uint256",
          "name": "tokenId",
          "type": "uint256"
        }
      ],
      "name": "ownerOf",
      "outputs": [
        {
          "internalType": "address",
          "name": "",
          "type": "address"
        }
      ],
      "stateMutability": "view",
      "type": "function"
    },
    {
      "inputs": [
        {
          "internalType": "address",
          "name": "from",
          "type": "address"
        },
        {
          "internalType": "address",
          "name": "to",
          "type": "address"
        },
        {
          "internalType": "uint256",
          "name": "tokenId",
          "type": "uint256"
        }
      ],
      "name": "safeTransferFrom",
      "outputs": [],
      "stateMutability": "nonpayable",
      "type": "function"
    },
    {
      "inputs": [
        {
          "internalType": "address",
          "name": "from",
          "type": "address"
        },
        {
          "internalType": "address",
          "name": "to",
          "type": "address"
        },
        {
          "internalType": "uint256",
          "name": "tokenId",
          "type": "uint256"
        },
        {
          "internalType": "bytes",
          "name": "_data",
          "type": "bytes"
        }
      ],
      "name": "safeTransferFrom",
      "outputs": [],
      "stateMutability": "nonpayable",
      "type": "function"
    },
    {
      "inputs": [
        {
          "internalType": "address",
          "name": "operator",
          "type": "address"
        },
        {
          "internalType": "bool",
          "name": "approved",
          "type": "bool"
        }
      ],
      "name": "setApprovalForAll",
      "outputs": [],
      "stateMutability": "nonpayable",
      "type": "function"
    },
    {
      "inputs": [
        {
          "internalType": "bytes4",
          "name": "interfaceId",
          "type": "bytes4"
        }
      ],
      "name": "supportsInterface",
      "outputs": [
        {
          "internalType": "bool",
          "name": "",
          "type": "bool"
        }
      ],
      "stateMutability": "view",
      "type": "function"
    },
    {
      "inputs": [],
      "name": "symbol",
      "outputs": [
        {
          "internalType": "string",
          "name": "",
          "type": "string"
        }
      ],
      "stateMutability": "view",
      "type": "function"
    },
    {
      "inputs": [
        {
          "internalType": "uint256",
          "name": "tokenId",
          "type": "uint256"
        }
      ],
      "name": "tokenURI",
      "outputs": [
        {
          "internalType": "string",
          "name": "",
          "type": "string"
        }
      ],
      "stateMutability": "view",
      "type": "function"
    },
    {
      "inputs": [
        {
          "internalType": "address",
          "name": "from",
          "type": "address"
        },
        {
          "internalType": "address",
          "name": "to",
          "type": "address"
        },
        {
          "internalType": "uint256",
          "name": "tokenId",
          "type": "uint256"
        }
      ],
      "name": "transferFrom",
      "outputs": [],
      "stateMutability": "nonpayable",
      "type": "function"
    }
  ],
  "bytecode": "0x608060405260405180610160016040528061012f81526020016200427961012f913960089080519060200190620000389291906200067e565b506040518060c001604052806040518060400160405280600a81526020017f466c75737472617465640000000000000000000000000000000000000000000081525081526020016040518060400160405280600581526020017f486170707900000000000000000000000000000000000000000000000000000081525081526020016040518060400160405280600b81526020017f4f7665727768656c6d656400000000000000000000000000000000000000000081525081526020016040518060400160405280600781526020017f457863697465640000000000000000000000000000000000000000000000000081525081526020016040518060400160405280600b81526020017f53706f6e7461696e6f757300000000000000000000000000000000000000000081525081526020016040518060400160405280600981526020017f456e6572676574696300000000000000000000000000000000000000000000008152508152506009906006620001b69291906200070f565b506040518060c001604052806040518060400160405280600781526020017f5261696e626f770000000000000000000000000000000000000000000000000081525081526020016040518060400160405280600981526020017f4d6963726f77617665000000000000000000000000000000000000000000000081525081526020016040518060400160405280600681526020017f427269646765000000000000000000000000000000000000000000000000000081525081526020016040518060400160405280600981526020017f48616d627572676572000000000000000000000000000000000000000000000081525081526020016040518060400160405280600781526020017f42696379636c650000000000000000000000000000000000000000000000000081525081526020016040518060400160405280600881526020017f54726f7573657273000000000000000000000000000000000000000000000000815250815250600a906006620003349291906200070f565b506040518060c001604052806040518060400160405280600581526020017f5368656c6600000000000000000000000000000000000000000000000000000081525081526020016040518060400160405280600681526020017f436173746c65000000000000000000000000000000000000000000000000000081525081526020016040518060400160405280600381526020017f426564000000000000000000000000000000000000000000000000000000000081525081526020016040518060400160405280600481526020017f526f61640000000000000000000000000000000000000000000000000000000081525081526020016040518060400160405280600781526020017f596f75724d756d0000000000000000000000000000000000000000000000000081525081526020016040518060400160405280600581526020017f50696c6c73000000000000000000000000000000000000000000000000000000815250815250600b906006620004b29291906200070f565b50348015620004c057600080fd5b506040518060400160405280600981526020017f5371756172654e465400000000000000000000000000000000000000000000008152506040518060400160405280600681526020017f53515541524500000000000000000000000000000000000000000000000000008152508160009080519060200190620005459291906200067e565b5080600190805190602001906200055e9291906200067e565b505050620005ac6040518060400160405280601c81526020017f496e6974696174696e6720526f79616c204d696e746572204e46542100000000815250620005b260201b6200103d1760201c565b62000930565b6200065281604051602401620005c9919062000844565b6040516020818303038152906040527f41304fac000000000000000000000000000000000000000000000000000000007bffffffffffffffffffffffffffffffffffffffffffffffffffffffff19166020820180517bffffffffffffffffffffffffffffffffffffffffffffffffffffffff83818316178352505050506200065560201b60201c565b50565b60008151905060006a636f6e736f6c652e6c6f679050602083016000808483855afa5050505050565b8280546200068c90620008ba565b90600052602060002090601f016020900481019282620006b05760008555620006fc565b82601f10620006cb57805160ff1916838001178555620006fc565b82800160010185558215620006fc579182015b82811115620006fb578251825591602001919060010190620006de565b5b5090506200070b919062000776565b5090565b82805482825590600052602060002090810192821562000763579160200282015b8281111562000762578251829080519060200190620007519291906200067e565b509160200191906001019062000730565b5b50905062000772919062000795565b5090565b5b808211156200079157600081600090555060010162000777565b5090565b5b80821115620007b95760008181620007af9190620007bd565b5060010162000796565b5090565b508054620007cb90620008ba565b6000825580601f10620007df575062000800565b601f016020900490600052602060002090810190620007ff919062000776565b5b50565b6000620008108262000868565b6200081c818562000873565b93506200082e81856020860162000884565b62000839816200091f565b840191505092915050565b6000602082019050818103600083015262000860818462000803565b905092915050565b600081519050919050565b600082825260208201905092915050565b60005b83811015620008a457808201518184015260208101905062000887565b83811115620008b4576000848401525b50505050565b60006002820490506001821680620008d357607f821691505b60208210811415620008ea57620008e9620008f0565b5b50919050565b7f4e487b7100000000000000000000000000000000000000000000000000000000600052602260045260246000fd5b6000601f19601f8301169050919050565b61393980620009406000396000f3fe608060405234801561001057600080fd5b506004361061010b5760003560e01c806370a08231116100a2578063a22cb46511610071578063a22cb465146102ca578063b88d4fde146102e6578063c87b56dd14610302578063d90a294314610332578063e985e9c5146103625761010b565b806370a082311461024257806379562c1c146102725780638a97ec2a146102a257806395d89b41146102ac5761010b565b8063095ea7b3116100de578063095ea7b3146101be57806323b872dd146101da57806342842e0e146101f65780636352211e146102125761010b565b806301ffc9a714610110578063060d00f01461014057806306fdde0314610170578063081812fc1461018e575b600080fd5b61012a60048036038101906101259190612469565b610392565b6040516101379190612b76565b60405180910390f35b61015a600480360381019061015591906124bb565b610474565b6040516101679190612b91565b60405180910390f35b610178610592565b6040516101859190612b91565b60405180910390f35b6101a860048036038101906101a391906124bb565b610624565b6040516101b59190612ae6565b60405180910390f35b6101d860048036038101906101d3919061242d565b6106a9565b005b6101f460048036038101906101ef9190612327565b6107c1565b005b610210600480360381019061020b9190612327565b610821565b005b61022c600480360381019061022791906124bb565b610841565b6040516102399190612ae6565b60405180910390f35b61025c600480360381019061025791906122c2565b6108f3565b6040516102699190612df1565b60405180910390f35b61028c600480360381019061028791906124bb565b6109ab565b6040516102999190612b91565b60405180910390f35b6102aa610ac9565b005b6102b4610c2f565b6040516102c19190612b91565b60405180910390f35b6102e460048036038101906102df91906123f1565b610cc1565b005b61030060048036038101906102fb9190612376565b610cd7565b005b61031c600480360381019061031791906124bb565b610d39565b6040516103299190612b91565b60405180910390f35b61034c600480360381019061034791906124bb565b610e8b565b6040516103599190612b91565b60405180910390f35b61037c600480360381019061037791906122eb565b610fa9565b6040516103899190612b76565b60405180910390f35b60007f80ac58cd000000000000000000000000000000000000000000000000000000007bffffffffffffffffffffffffffffffffffffffffffffffffffffffff1916827bffffffffffffffffffffffffffffffffffffffffffffffffffffffff1916148061045d57507f5b5e139f000000000000000000000000000000000000000000000000000000007bffffffffffffffffffffffffffffffffffffffffffffffffffffffff1916827bffffffffffffffffffffffffffffffffffffffffffffffffffffffff1916145b8061046d575061046c826110d6565b5b9050919050565b606060006104a861048484611140565b6040516020016104949190612a30565b6040516020818303038152906040526112ed565b9050600a80549050816104bb9190613131565b9050600a81815481106104f7577f4e487b7100000000000000000000000000000000000000000000000000000000600052603260045260246000fd5b90600052602060002001805461050c90613085565b80601f016020809104026020016040519081016040528092919081815260200182805461053890613085565b80156105855780601f1061055a57610100808354040283529160200191610585565b820191906000526020600020905b81548152906001019060200180831161056857829003601f168201915b5050505050915050919050565b6060600080546105a190613085565b80601f01602080910402602001604051908101604052809291908181526020018280546105cd90613085565b801561061a5780601f106105ef5761010080835404028352916020019161061a565b820191906000526020600020905b8154815290600101906020018083116105fd57829003601f168201915b5050505050905090565b600061062f82611320565b61066e576040517f08c379a000000000000000000000000000000000000000000000000000000000815260040161066590612d71565b60405180910390fd5b6004600083815260200190815260200160002060009054906101000a900473ffffffffffffffffffffffffffffffffffffffff169050919050565b60006106b482610841565b90508073ffffffffffffffffffffffffffffffffffffffff168373ffffffffffffffffffffffffffffffffffffffff161415610725576040517f08c379a000000000000000000000000000000000000000000000000000000000815260040161071c90612db1565b60405180910390fd5b8073ffffffffffffffffffffffffffffffffffffffff1661074461138c565b73ffffffffffffffffffffffffffffffffffffffff16148061077357506107728161076d61138c565b610fa9565b5b6107b2576040517f08c379a00000000000000000000000000000000000000000000000000000000081526004016107a990612cb1565b60405180910390fd5b6107bc8383611394565b505050565b6107d26107cc61138c565b8261144d565b610811576040517f08c379a000000000000000000000000000000000000000000000000000000000815260040161080890612dd1565b60405180910390fd5b61081c83838361152b565b505050565b61083c83838360405180602001604052806000815250610cd7565b505050565b6000806002600084815260200190815260200160002060009054906101000a900473ffffffffffffffffffffffffffffffffffffffff169050600073ffffffffffffffffffffffffffffffffffffffff168173ffffffffffffffffffffffffffffffffffffffff1614156108ea576040517f08c379a00000000000000000000000000000000000000000000000000000000081526004016108e190612cf1565b60405180910390fd5b80915050919050565b60008073ffffffffffffffffffffffffffffffffffffffff168273ffffffffffffffffffffffffffffffffffffffff161415610964576040517f08c379a000000000000000000000000000000000000000000000000000000000815260040161095b90612cd1565b60405180910390fd5b600360008373ffffffffffffffffffffffffffffffffffffffff1673ffffffffffffffffffffffffffffffffffffffff168152602001908152602001600020549050919050565b606060006109df6109bb84611140565b6040516020016109cb9190612a30565b6040516020818303038152906040526112ed565b9050600b80549050816109f29190613131565b9050600b8181548110610a2e577f4e487b7100000000000000000000000000000000000000000000000000000000600052603260045260246000fd5b906000526020600020018054610a4390613085565b80601f0160208091040260200160405190810160405280929190818152602001828054610a6f90613085565b8015610abc5780601f10610a9157610100808354040283529160200191610abc565b820191906000526020600020905b815481529060010190602001808311610a9f57829003601f168201915b5050505050915050919050565b6000610ad56007611792565b90506000610ae282610e8b565b90506000610aef83610474565b90506000610afc846109ab565b90506000838383604051602001610b15939291906129b6565b604051602081830303815290604052905060006008858585604051602001610b4094939291906129e7565b60405160208183030381529060405290506000610b8583610b60846117a0565b604051602001610b71929190612a52565b6040516020818303038152906040526117a0565b9050600081604051602001610b9a9190612ac4565b6040516020818303038152906040529050610bb5338961195e565b610bbf888261197c565b610bc960076119f0565b7fd7cc981518b53c0cbccae988e353ecac878695f0a9c2d57b2652f4dddd96e7c03389604051610bfa929190612b4d565b60405180910390a1610c256040518060600160405280602681526020016138de602691398933611a06565b5050505050505050565b606060018054610c3e90613085565b80601f0160208091040260200160405190810160405280929190818152602001828054610c6a90613085565b8015610cb75780601f10610c8c57610100808354040283529160200191610cb7565b820191906000526020600020905b815481529060010190602001808311610c9a57829003601f168201915b5050505050905090565b610cd3610ccc61138c565b8383611aa5565b5050565b610ce8610ce261138c565b8361144d565b610d27576040517f08c379a0000000000000000000000000000000000000000000000000000000008152600401610d1e90612dd1565b60405180910390fd5b610d3384848484611c12565b50505050565b6060610d4482611320565b610d83576040517f08c379a0000000000000000000000000000000000000000000000000000000008152600401610d7a90612d51565b60405180910390fd5b6000600660008481526020019081526020016000208054610da390613085565b80601f0160208091040260200160405190810160405280929190818152602001828054610dcf90613085565b8015610e1c5780601f10610df157610100808354040283529160200191610e1c565b820191906000526020600020905b815481529060010190602001808311610dff57829003601f168201915b505050505090506000610e2d611c6e565b9050600081511415610e43578192505050610e86565b600082511115610e78578082604051602001610e60929190612992565b60405160208183030381529060405292505050610e86565b610e8184611c85565b925050505b919050565b60606000610ebf610e9b84611140565b604051602001610eab9190612aa2565b6040516020818303038152906040526112ed565b905060098054905081610ed29190613131565b905060098181548110610f0e577f4e487b7100000000000000000000000000000000000000000000000000000000600052603260045260246000fd5b906000526020600020018054610f2390613085565b80601f0160208091040260200160405190810160405280929190818152602001828054610f4f90613085565b8015610f9c5780601f10610f7157610100808354040283529160200191610f9c565b820191906000526020600020905b815481529060010190602001808311610f7f57829003601f168201915b5050505050915050919050565b6000600560008473ffffffffffffffffffffffffffffffffffffffff1673ffffffffffffffffffffffffffffffffffffffff16815260200190815260200160002060008373ffffffffffffffffffffffffffffffffffffffff1673ffffffffffffffffffffffffffffffffffffffff16815260200190815260200160002060009054906101000a900460ff16905092915050565b6110d3816040516024016110519190612b91565b6040516020818303038152906040527f41304fac000000000000000000000000000000000000000000000000000000007bffffffffffffffffffffffffffffffffffffffffffffffffffffffff19166020820180517bffffffffffffffffffffffffffffffffffffffffffffffffffffffff8381831617835250505050611d2c565b50565b60007f01ffc9a7000000000000000000000000000000000000000000000000000000007bffffffffffffffffffffffffffffffffffffffffffffffffffffffff1916827bffffffffffffffffffffffffffffffffffffffffffffffffffffffff1916149050919050565b60606000821415611188576040518060400160405280600181526020017f300000000000000000000000000000000000000000000000000000000000000081525090506112e8565b600082905060005b600082146111ba5780806111a3906130e8565b915050600a826111b39190612f10565b9150611190565b60008167ffffffffffffffff8111156111fc577f4e487b7100000000000000000000000000000000000000000000000000000000600052604160045260246000fd5b6040519080825280601f01601f19166020018201604052801561122e5781602001600182028036833780820191505090505b5090505b600085146112e1576001826112479190612f9b565b9150600a856112569190613131565b60306112629190612eba565b60f81b81838151811061129e577f4e487b7100000000000000000000000000000000000000000000000000000000600052603260045260246000fd5b60200101907effffffffffffffffffffffffffffffffffffffffffffffffffffffffffffff1916908160001a905350600a856112da9190612f10565b9450611232565b8093505050505b919050565b600081604051602001611300919061297b565b6040516020818303038152906040528051906020012060001c9050919050565b60008073ffffffffffffffffffffffffffffffffffffffff166002600084815260200190815260200160002060009054906101000a900473ffffffffffffffffffffffffffffffffffffffff1673ffffffffffffffffffffffffffffffffffffffff1614159050919050565b600033905090565b816004600083815260200190815260200160002060006101000a81548173ffffffffffffffffffffffffffffffffffffffff021916908373ffffffffffffffffffffffffffffffffffffffff160217905550808273ffffffffffffffffffffffffffffffffffffffff1661140783610841565b73ffffffffffffffffffffffffffffffffffffffff167f8c5be1e5ebec7d5bd14f71427d1e84f3dd0314c0f7b2291e5b200ac8c7c3b92560405160405180910390a45050565b600061145882611320565b611497576040517f08c379a000000000000000000000000000000000000000000000000000000000815260040161148e90612c91565b60405180910390fd5b60006114a283610841565b90508073ffffffffffffffffffffffffffffffffffffffff168473ffffffffffffffffffffffffffffffffffffffff16148061151157508373ffffffffffffffffffffffffffffffffffffffff166114f984610624565b73ffffffffffffffffffffffffffffffffffffffff16145b8061152257506115218185610fa9565b5b91505092915050565b8273ffffffffffffffffffffffffffffffffffffffff1661154b82610841565b73ffffffffffffffffffffffffffffffffffffffff16146115a1576040517f08c379a000000000000000000000000000000000000000000000000000000000815260040161159890612c11565b60405180910390fd5b600073ffffffffffffffffffffffffffffffffffffffff168273ffffffffffffffffffffffffffffffffffffffff161415611611576040517f08c379a000000000000000000000000000000000000000000000000000000000815260040161160890612c51565b60405180910390fd5b61161c838383611d55565b611627600082611394565b6001600360008573ffffffffffffffffffffffffffffffffffffffff1673ffffffffffffffffffffffffffffffffffffffff16815260200190815260200160002060008282546116779190612f9b565b925050819055506001600360008473ffffffffffffffffffffffffffffffffffffffff1673ffffffffffffffffffffffffffffffffffffffff16815260200190815260200160002060008282546116ce9190612eba565b92505081905550816002600083815260200190815260200160002060006101000a81548173ffffffffffffffffffffffffffffffffffffffff021916908373ffffffffffffffffffffffffffffffffffffffff160217905550808273ffffffffffffffffffffffffffffffffffffffff168473ffffffffffffffffffffffffffffffffffffffff167fddf252ad1be2c89b69c2b068fc378daa952ba7f163c4a11628f55a4df523b3ef60405160405180910390a461178d838383611d5a565b505050565b600081600001549050919050565b606060008251905060008114156117c95760405180602001604052806000815250915050611959565b600060036002836117da9190612eba565b6117e49190612f10565b60046117f09190612f41565b905060006020826118019190612eba565b67ffffffffffffffff811115611840577f4e487b7100000000000000000000000000000000000000000000000000000000600052604160045260246000fd5b6040519080825280601f01601f1916602001820160405280156118725781602001600182028036833780820191505090505b509050600060405180606001604052806040815260200161389e604091399050600181016020830160005b868110156119165760038101905062ffffff818a015116603f8160121c168401518060081b905060ff603f83600c1c1686015116810190508060081b905060ff603f8360061c1686015116810190508060081b905060ff603f831686015116810190508060e01b9050808452600484019350505061189d565b50600386066001811461193057600281146119405761194b565b613d3d60f01b600283035261194b565b603d60f81b60018303525b508484525050819450505050505b919050565b611978828260405180602001604052806000815250611d5f565b5050565b61198582611320565b6119c4576040517f08c379a00000000000000000000000000000000000000000000000000000000081526004016119bb90612d11565b60405180910390fd5b806006600084815260200190815260200160002090805190602001906119eb92919061214e565b505050565b6001816000016000828254019250508190555050565b611aa0838383604051602401611a1e93929190612bb3565b6040516020818303038152906040527fe3849f79000000000000000000000000000000000000000000000000000000007bffffffffffffffffffffffffffffffffffffffffffffffffffffffff19166020820180517bffffffffffffffffffffffffffffffffffffffffffffffffffffffff8381831617835250505050611d2c565b505050565b8173ffffffffffffffffffffffffffffffffffffffff168373ffffffffffffffffffffffffffffffffffffffff161415611b14576040517f08c379a0000000000000000000000000000000000000000000000000000000008152600401611b0b90612c71565b60405180910390fd5b80600560008573ffffffffffffffffffffffffffffffffffffffff1673ffffffffffffffffffffffffffffffffffffffff16815260200190815260200160002060008473ffffffffffffffffffffffffffffffffffffffff1673ffffffffffffffffffffffffffffffffffffffff16815260200190815260200160002060006101000a81548160ff0219169083151502179055508173ffffffffffffffffffffffffffffffffffffffff168373ffffffffffffffffffffffffffffffffffffffff167f17307eab39ab6107e8899845ad3d59bd9653f200f220920489ca2b5937696c3183604051611c059190612b76565b60405180910390a3505050565b611c1d84848461152b565b611c2984848484611dba565b611c68576040517f08c379a0000000000000000000000000000000000000000000000000000000008152600401611c5f90612bf1565b60405180910390fd5b50505050565b606060405180602001604052806000815250905090565b6060611c9082611320565b611ccf576040517f08c379a0000000000000000000000000000000000000000000000000000000008152600401611cc690612d91565b60405180910390fd5b6000611cd9611c6e565b90506000815111611cf95760405180602001604052806000815250611d24565b80611d0384611140565b604051602001611d14929190612992565b6040516020818303038152906040525b915050919050565b60008151905060006a636f6e736f6c652e6c6f679050602083016000808483855afa5050505050565b505050565b505050565b611d698383611f51565b611d766000848484611dba565b611db5576040517f08c379a0000000000000000000000000000000000000000000000000000000008152600401611dac90612bf1565b60405180910390fd5b505050565b6000611ddb8473ffffffffffffffffffffffffffffffffffffffff1661212b565b15611f44578373ffffffffffffffffffffffffffffffffffffffff1663150b7a02611e0461138c565b8786866040518563ffffffff1660e01b8152600401611e269493929190612b01565b602060405180830381600087803b158015611e4057600080fd5b505af1925050508015611e7157506040513d601f19601f82011682018060405250810190611e6e9190612492565b60015b611ef4573d8060008114611ea1576040519150601f19603f3d011682016040523d82523d6000602084013e611ea6565b606091505b50600081511415611eec576040517f08c379a0000000000000000000000000000000000000000000000000000000008152600401611ee390612bf1565b60405180910390fd5b805181602001fd5b63150b7a0260e01b7bffffffffffffffffffffffffffffffffffffffffffffffffffffffff1916817bffffffffffffffffffffffffffffffffffffffffffffffffffffffff191614915050611f49565b600190505b949350505050565b600073ffffffffffffffffffffffffffffffffffffffff168273ffffffffffffffffffffffffffffffffffffffff161415611fc1576040517f08c379a0000000000000000000000000000000000000000000000000000000008152600401611fb890612d31565b60405180910390fd5b611fca81611320565b1561200a576040517f08c379a000000000000000000000000000000000000000000000000000000000815260040161200190612c31565b60405180910390fd5b61201660008383611d55565b6001600360008473ffffffffffffffffffffffffffffffffffffffff1673ffffffffffffffffffffffffffffffffffffffff16815260200190815260200160002060008282546120669190612eba565b92505081905550816002600083815260200190815260200160002060006101000a81548173ffffffffffffffffffffffffffffffffffffffff021916908373ffffffffffffffffffffffffffffffffffffffff160217905550808273ffffffffffffffffffffffffffffffffffffffff16600073ffffffffffffffffffffffffffffffffffffffff167fddf252ad1be2c89b69c2b068fc378daa952ba7f163c4a11628f55a4df523b3ef60405160405180910390a461212760008383611d5a565b5050565b6000808273ffffffffffffffffffffffffffffffffffffffff163b119050919050565b82805461215a90613085565b90600052602060002090601f01602090048101928261217c57600085556121c3565b82601f1061219557805160ff19168380011785556121c3565b828001600101855582156121c3579182015b828111156121c25782518255916020019190600101906121a7565b5b5090506121d091906121d4565b5090565b5b808211156121ed5760008160009055506001016121d5565b5090565b60006122046121ff84612e31565b612e0c565b90508281526020810184848401111561221c57600080fd5b612227848285613043565b509392505050565b60008135905061223e81613841565b92915050565b60008135905061225381613858565b92915050565b6000813590506122688161386f565b92915050565b60008151905061227d8161386f565b92915050565b600082601f83011261229457600080fd5b81356122a48482602086016121f1565b91505092915050565b6000813590506122bc81613886565b92915050565b6000602082840312156122d457600080fd5b60006122e28482850161222f565b91505092915050565b600080604083850312156122fe57600080fd5b600061230c8582860161222f565b925050602061231d8582860161222f565b9150509250929050565b60008060006060848603121561233c57600080fd5b600061234a8682870161222f565b935050602061235b8682870161222f565b925050604061236c868287016122ad565b9150509250925092565b6000806000806080858703121561238c57600080fd5b600061239a8782880161222f565b94505060206123ab8782880161222f565b93505060406123bc878288016122ad565b925050606085013567ffffffffffffffff8111156123d957600080fd5b6123e587828801612283565b91505092959194509250565b6000806040838503121561240457600080fd5b60006124128582860161222f565b925050602061242385828601612244565b9150509250929050565b6000806040838503121561244057600080fd5b600061244e8582860161222f565b925050602061245f858286016122ad565b9150509250929050565b60006020828403121561247b57600080fd5b600061248984828501612259565b91505092915050565b6000602082840312156124a457600080fd5b60006124b28482850161226e565b91505092915050565b6000602082840312156124cd57600080fd5b60006124db848285016122ad565b91505092915050565b6124ed81612fcf565b82525050565b6124fc81612fe1565b82525050565b600061250d82612e77565b6125178185612e8d565b9350612527818560208601613052565b6125308161321e565b840191505092915050565b600061254682612e82565b6125508185612e9e565b9350612560818560208601613052565b6125698161321e565b840191505092915050565b600061257f82612e82565b6125898185612eaf565b9350612599818560208601613052565b80840191505092915050565b600081546125b281613085565b6125bc8186612eaf565b945060018216600081146125d757600181146125e85761261b565b60ff1983168652818601935061261b565b6125f185612e62565b60005b83811015612613578154818901526001820191506020810190506125f4565b838801955050505b50505092915050565b6000612631603283612e9e565b915061263c8261322f565b604082019050919050565b6000612654603e83612eaf565b915061265f8261327e565b603e82019050919050565b6000612677602583612e9e565b9150612682826132cd565b604082019050919050565b600061269a601c83612e9e565b91506126a58261331c565b602082019050919050565b60006126bd602483612e9e565b91506126c882613345565b604082019050919050565b60006126e0601983612e9e565b91506126eb82613394565b602082019050919050565b6000612703600b83612eaf565b915061270e826133bd565b600b82019050919050565b6000612726602c83612e9e565b9150612731826133e6565b604082019050919050565b6000612749600d83612eaf565b915061275482613435565b600d82019050919050565b600061276c603883612e9e565b91506127778261345e565b604082019050919050565b600061278f602a83612e9e565b915061279a826134ad565b604082019050919050565b60006127b2602983612e9e565b91506127bd826134fc565b604082019050919050565b60006127d5602e83612e9e565b91506127e08261354b565b604082019050919050565b60006127f8600283612eaf565b91506128038261359a565b600282019050919050565b600061281b602083612e9e565b9150612826826135c3565b602082019050919050565b600061283e603183612e9e565b9150612849826135ec565b604082019050919050565b6000612861602c83612e9e565b915061286c8261363b565b604082019050919050565b6000612884602f83612e9e565b915061288f8261368a565b604082019050919050565b60006128a7602783612eaf565b91506128b2826136d9565b602782019050919050565b60006128ca600a83612eaf565b91506128d582613728565b600a82019050919050565b60006128ed602183612e9e565b91506128f882613751565b604082019050919050565b6000612910600a83612eaf565b915061291b826137a0565b600a82019050919050565b6000612933601d83612eaf565b915061293e826137c9565b601d82019050919050565b6000612956603183612e9e565b9150612961826137f2565b604082019050919050565b61297581613039565b82525050565b60006129878284612574565b915081905092915050565b600061299e8285612574565b91506129aa8284612574565b91508190509392505050565b60006129c28286612574565b91506129ce8285612574565b91506129da8284612574565b9150819050949350505050565b60006129f382876125a5565b91506129ff8286612574565b9150612a0b8285612574565b9150612a178284612574565b9150612a228261273c565b915081905095945050505050565b6000612a3b826126f6565b9150612a478284612574565b915081905092915050565b6000612a5d826128bd565b9150612a698285612574565b9150612a7482612647565b9150612a7f8261289a565b9150612a8b8284612574565b9150612a96826127eb565b91508190509392505050565b6000612aad82612903565b9150612ab98284612574565b915081905092915050565b6000612acf82612926565b9150612adb8284612574565b915081905092915050565b6000602082019050612afb60008301846124e4565b92915050565b6000608082019050612b1660008301876124e4565b612b2360208301866124e4565b612b30604083018561296c565b8181036060830152612b428184612502565b905095945050505050565b6000604082019050612b6260008301856124e4565b612b6f602083018461296c565b9392505050565b6000602082019050612b8b60008301846124f3565b92915050565b60006020820190508181036000830152612bab818461253b565b905092915050565b60006060820190508181036000830152612bcd818661253b565b9050612bdc602083018561296c565b612be960408301846124e4565b949350505050565b60006020820190508181036000830152612c0a81612624565b9050919050565b60006020820190508181036000830152612c2a8161266a565b9050919050565b60006020820190508181036000830152612c4a8161268d565b9050919050565b60006020820190508181036000830152612c6a816126b0565b9050919050565b60006020820190508181036000830152612c8a816126d3565b9050919050565b60006020820190508181036000830152612caa81612719565b9050919050565b60006020820190508181036000830152612cca8161275f565b9050919050565b60006020820190508181036000830152612cea81612782565b9050919050565b60006020820190508181036000830152612d0a816127a5565b9050919050565b60006020820190508181036000830152612d2a816127c8565b9050919050565b60006020820190508181036000830152612d4a8161280e565b9050919050565b60006020820190508181036000830152612d6a81612831565b9050919050565b60006020820190508181036000830152612d8a81612854565b9050919050565b60006020820190508181036000830152612daa81612877565b9050919050565b60006020820190508181036000830152612dca816128e0565b9050919050565b60006020820190508181036000830152612dea81612949565b9050919050565b6000602082019050612e06600083018461296c565b92915050565b6000612e16612e27565b9050612e2282826130b7565b919050565b6000604051905090565b600067ffffffffffffffff821115612e4c57612e4b6131ef565b5b612e558261321e565b9050602081019050919050565b60008190508160005260206000209050919050565b600081519050919050565b600081519050919050565b600082825260208201905092915050565b600082825260208201905092915050565b600081905092915050565b6000612ec582613039565b9150612ed083613039565b9250827fffffffffffffffffffffffffffffffffffffffffffffffffffffffffffffffff03821115612f0557612f04613162565b5b828201905092915050565b6000612f1b82613039565b9150612f2683613039565b925082612f3657612f35613191565b5b828204905092915050565b6000612f4c82613039565b9150612f5783613039565b9250817fffffffffffffffffffffffffffffffffffffffffffffffffffffffffffffffff0483118215151615612f9057612f8f613162565b5b828202905092915050565b6000612fa682613039565b9150612fb183613039565b925082821015612fc457612fc3613162565b5b828203905092915050565b6000612fda82613019565b9050919050565b60008115159050919050565b60007fffffffff0000000000000000000000000000000000000000000000000000000082169050919050565b600073ffffffffffffffffffffffffffffffffffffffff82169050919050565b6000819050919050565b82818337600083830152505050565b60005b83811015613070578082015181840152602081019050613055565b8381111561307f576000848401525b50505050565b6000600282049050600182168061309d57607f821691505b602082108114156130b1576130b06131c0565b5b50919050565b6130c08261321e565b810181811067ffffffffffffffff821117156130df576130de6131ef565b5b80604052505050565b60006130f382613039565b91507fffffffffffffffffffffffffffffffffffffffffffffffffffffffffffffffff82141561312657613125613162565b5b600182019050919050565b600061313c82613039565b915061314783613039565b92508261315757613156613191565b5b828206905092915050565b7f4e487b7100000000000000000000000000000000000000000000000000000000600052601160045260246000fd5b7f4e487b7100000000000000000000000000000000000000000000000000000000600052601260045260246000fd5b7f4e487b7100000000000000000000000000000000000000000000000000000000600052602260045260246000fd5b7f4e487b7100000000000000000000000000000000000000000000000000000000600052604160045260246000fd5b6000601f19601f8301169050919050565b7f4552433732313a207472616e7366657220746f206e6f6e20455243373231526560008201527f63656976657220696d706c656d656e7465720000000000000000000000000000602082015250565b7f222c20226465736372697074696f6e223a22412077656c6c20776f726465642060008201527f636f6c6c656374696f6e206f6620526f79616c204d696e74204e465473210000602082015250565b7f4552433732313a207472616e736665722066726f6d20696e636f72726563742060008201527f6f776e6572000000000000000000000000000000000000000000000000000000602082015250565b7f4552433732313a20746f6b656e20616c7265616479206d696e74656400000000600082015250565b7f4552433732313a207472616e7366657220746f20746865207a65726f2061646460008201527f7265737300000000000000000000000000000000000000000000000000000000602082015250565b7f4552433732313a20617070726f766520746f2063616c6c657200000000000000600082015250565b7f5345434f4e445f574f5244000000000000000000000000000000000000000000600082015250565b7f4552433732313a206f70657261746f7220717565727920666f72206e6f6e657860008201527f697374656e7420746f6b656e0000000000000000000000000000000000000000602082015250565b7f3c2f746578743e3c2f7376673e00000000000000000000000000000000000000600082015250565b7f4552433732313a20617070726f76652063616c6c6572206973206e6f74206f7760008201527f6e6572206e6f7220617070726f76656420666f7220616c6c0000000000000000602082015250565b7f4552433732313a2062616c616e636520717565727920666f7220746865207a6560008201527f726f206164647265737300000000000000000000000000000000000000000000602082015250565b7f4552433732313a206f776e657220717565727920666f72206e6f6e657869737460008201527f656e7420746f6b656e0000000000000000000000000000000000000000000000602082015250565b7f45524337323155524953746f726167653a2055524920736574206f66206e6f6e60008201527f6578697374656e7420746f6b656e000000000000000000000000000000000000602082015250565b7f227d000000000000000000000000000000000000000000000000000000000000600082015250565b7f4552433732313a206d696e7420746f20746865207a65726f2061646472657373600082015250565b7f45524337323155524953746f726167653a2055524920717565727920666f722060008201527f6e6f6e6578697374656e7420746f6b656e000000000000000000000000000000602082015250565b7f4552433732313a20617070726f76656420717565727920666f72206e6f6e657860008201527f697374656e7420746f6b656e0000000000000000000000000000000000000000602082015250565b7f4552433732314d657461646174613a2055524920717565727920666f72206e6f60008201527f6e6578697374656e7420746f6b656e0000000000000000000000000000000000602082015250565b7f222c2022696d616765223a2022646174613a696d6167652f7376672b786d6c3b60008201527f6261736536342c00000000000000000000000000000000000000000000000000602082015250565b7f7b226e616d65223a202200000000000000000000000000000000000000000000600082015250565b7f4552433732313a20617070726f76616c20746f2063757272656e74206f776e6560008201527f7200000000000000000000000000000000000000000000000000000000000000602082015250565b7f46495253545f574f524400000000000000000000000000000000000000000000600082015250565b7f646174613a6170706c69636174696f6e2f6a736f6e3b6261736536342c000000600082015250565b7f4552433732313a207472616e736665722063616c6c6572206973206e6f74206f60008201527f776e6572206e6f7220617070726f766564000000000000000000000000000000602082015250565b61384a81612fcf565b811461385557600080fd5b50565b61386181612fe1565b811461386c57600080fd5b50565b61387881612fed565b811461388357600080fd5b50565b61388f81613039565b811461389a57600080fd5b5056fe4142434445464748494a4b4c4d4e4f505152535455565758595a6162636465666768696a6b6c6d6e6f707172737475767778797a303132333435363738392b2f416e204e465420772f20494420257320686173206265656e206d696e74656420746f3a202573a2646970667358221220b322ab5620739d28459861f7e8f23d50cf40b0a1488fef7fb1ae4c314699a59964736f6c634300080100333c73766720786d6c6e733d27687474703a2f2f7777772e77332e6f72672f323030302f73766727207072657365727665417370656374526174696f3d27784d696e594d696e206d656574272076696577426f783d273020302033353020333530273e3c7374796c653e2e62617365207b2066696c6c3a2077686974653b20666f6e742d66616d696c793a2073657269663b20666f6e742d73697a653a20323470783b207d3c2f7374796c653e3c726563742077696474683d273130302527206865696768743d2731303025272066696c6c3d27626c61636b27202f3e3c7465787420783d273530252720793d273530252720636c6173733d27626173652720646f6d696e616e742d626173656c696e653d276d6964646c652720746578742d616e63686f723d276d6964646c65273e",
  "linkReferences": {},
  "deployedLinkReferences": {}
}