{
  "_format": "hh-sol-artifact-1",
  "contractName": "RoyalMinterNFT",
  "sourceName": "contracts/RoyalMinterNFT.sol",
  "abi": [
    {
      "inputs": [],
      "stateMutability": "nonpayable",
      "type": "constructor"
    },
    {
      "anonymous": false,
      "inputs": [
        {
          "indexed": true,
          "internalType": "address",
          "name": "owner",
          "type": "address"
        },
        {
          "indexed": true,
          "internalType": "address",
          "name": "approved",
          "type": "address"
        },
        {
          "indexed": true,
          "internalType": "uint256",
          "name": "tokenId",
          "type": "uint256"
        }
      ],
      "name": "Approval",
      "type": "event"
    },
    {
      "anonymous": false,
      "inputs": [
        {
          "indexed": true,
          "internalType": "address",
          "name": "owner",
          "type": "address"
        },
        {
          "indexed": true,
          "internalType": "address",
          "name": "operator",
          "type": "address"
        },
        {
          "indexed": false,
          "internalType": "bool",
          "name": "approved",
          "type": "bool"
        }
      ],
      "name": "ApprovalForAll",
      "type": "event"
    },
    {
      "anonymous": false,
      "inputs": [
        {
          "indexed": false,
          "internalType": "address",
          "name": "sender",
          "type": "address"
        },
        {
          "indexed": false,
          "internalType": "uint256",
          "name": "tokenId",
          "type": "uint256"
        },
        {
          "indexed": false,
          "internalType": "uint256",
          "name": "totalCount",
          "type": "uint256"
        }
      ],
      "name": "RoyalNftMinted",
      "type": "event"
    },
    {
      "anonymous": false,
      "inputs": [
        {
          "indexed": true,
          "internalType": "address",
          "name": "from",
          "type": "address"
        },
        {
          "indexed": true,
          "internalType": "address",
          "name": "to",
          "type": "address"
        },
        {
          "indexed": true,
          "internalType": "uint256",
          "name": "tokenId",
          "type": "uint256"
        }
      ],
      "name": "Transfer",
      "type": "event"
    },
    {
      "inputs": [
        {
          "internalType": "address",
          "name": "to",
          "type": "address"
        },
        {
          "internalType": "uint256",
          "name": "tokenId",
          "type": "uint256"
        }
      ],
      "name": "approve",
      "outputs": [],
      "stateMutability": "nonpayable",
      "type": "function"
    },
    {
      "inputs": [
        {
          "internalType": "address",
          "name": "owner",
          "type": "address"
        }
      ],
      "name": "balanceOf",
      "outputs": [
        {
          "internalType": "uint256",
          "name": "",
          "type": "uint256"
        }
      ],
      "stateMutability": "view",
      "type": "function"
    },
    {
      "inputs": [],
      "name": "createNFT",
      "outputs": [],
      "stateMutability": "nonpayable",
      "type": "function"
    },
    {
      "inputs": [
        {
          "internalType": "uint256",
          "name": "tokenId",
          "type": "uint256"
        }
      ],
      "name": "getApproved",
      "outputs": [
        {
          "internalType": "address",
          "name": "",
          "type": "address"
        }
      ],
      "stateMutability": "view",
      "type": "function"
    },
    {
      "inputs": [
        {
          "internalType": "uint256",
          "name": "tokenId",
          "type": "uint256"
        }
      ],
      "name": "getFirstWordFromArray",
      "outputs": [
        {
          "internalType": "string",
          "name": "",
          "type": "string"
        }
      ],
      "stateMutability": "view",
      "type": "function"
    },
    {
      "inputs": [
        {
          "internalType": "uint256",
          "name": "tokenId",
          "type": "uint256"
        }
      ],
      "name": "getSecondWordFromArray",
      "outputs": [
        {
          "internalType": "string",
          "name": "",
          "type": "string"
        }
      ],
      "stateMutability": "view",
      "type": "function"
    },
    {
      "inputs": [
        {
          "internalType": "uint256",
          "name": "tokenId",
          "type": "uint256"
        }
      ],
      "name": "getThirdWordFromArray",
      "outputs": [
        {
          "internalType": "string",
          "name": "",
          "type": "string"
        }
      ],
      "stateMutability": "view",
      "type": "function"
    },
    {
      "inputs": [
        {
          "internalType": "address",
          "name": "owner",
          "type": "address"
        },
        {
          "internalType": "address",
          "name": "operator",
          "type": "address"
        }
      ],
      "name": "isApprovedForAll",
      "outputs": [
        {
          "internalType": "bool",
          "name": "",
          "type": "bool"
        }
      ],
      "stateMutability": "view",
      "type": "function"
    },
    {
      "inputs": [],
      "name": "name",
      "outputs": [
        {
          "internalType": "string",
          "name": "",
          "type": "string"
        }
      ],
      "stateMutability": "view",
      "type": "function"
    },
    {
      "inputs": [
        {
          "internalType": "uint256",
          "name": "tokenId",
          "type": "uint256"
        }
      ],
      "name": "ownerOf",
      "outputs": [
        {
          "internalType": "address",
          "name": "",
          "type": "address"
        }
      ],
      "stateMutability": "view",
      "type": "function"
    },
    {
      "inputs": [
        {
          "internalType": "address",
          "name": "from",
          "type": "address"
        },
        {
          "internalType": "address",
          "name": "to",
          "type": "address"
        },
        {
          "internalType": "uint256",
          "name": "tokenId",
          "type": "uint256"
        }
      ],
      "name": "safeTransferFrom",
      "outputs": [],
      "stateMutability": "nonpayable",
      "type": "function"
    },
    {
      "inputs": [
        {
          "internalType": "address",
          "name": "from",
          "type": "address"
        },
        {
          "internalType": "address",
          "name": "to",
          "type": "address"
        },
        {
          "internalType": "uint256",
          "name": "tokenId",
          "type": "uint256"
        },
        {
          "internalType": "bytes",
          "name": "_data",
          "type": "bytes"
        }
      ],
      "name": "safeTransferFrom",
      "outputs": [],
      "stateMutability": "nonpayable",
      "type": "function"
    },
    {
      "inputs": [
        {
          "internalType": "address",
          "name": "operator",
          "type": "address"
        },
        {
          "internalType": "bool",
          "name": "approved",
          "type": "bool"
        }
      ],
      "name": "setApprovalForAll",
      "outputs": [],
      "stateMutability": "nonpayable",
      "type": "function"
    },
    {
      "inputs": [
        {
          "internalType": "bytes4",
          "name": "interfaceId",
          "type": "bytes4"
        }
      ],
      "name": "supportsInterface",
      "outputs": [
        {
          "internalType": "bool",
          "name": "",
          "type": "bool"
        }
      ],
      "stateMutability": "view",
      "type": "function"
    },
    {
      "inputs": [],
      "name": "symbol",
      "outputs": [
        {
          "internalType": "string",
          "name": "",
          "type": "string"
        }
      ],
      "stateMutability": "view",
      "type": "function"
    },
    {
      "inputs": [
        {
          "internalType": "uint256",
          "name": "tokenId",
          "type": "uint256"
        }
      ],
      "name": "tokenURI",
      "outputs": [
        {
          "internalType": "string",
          "name": "",
          "type": "string"
        }
      ],
      "stateMutability": "view",
      "type": "function"
    },
    {
      "inputs": [
        {
          "internalType": "address",
          "name": "from",
          "type": "address"
        },
        {
          "internalType": "address",
          "name": "to",
          "type": "address"
        },
        {
          "internalType": "uint256",
          "name": "tokenId",
          "type": "uint256"
        }
      ],
      "name": "transferFrom",
      "outputs": [],
      "stateMutability": "nonpayable",
      "type": "function"
    }
  ],
  "bytecode": "0x6080604052600060085560405180610160016040528061012f81526020016200429761012f9139600990805190602001906200003d92919062000683565b506040518060c001604052806040518060400160405280600a81526020017f466c75737472617465640000000000000000000000000000000000000000000081525081526020016040518060400160405280600581526020017f486170707900000000000000000000000000000000000000000000000000000081525081526020016040518060400160405280600b81526020017f4f7665727768656c6d656400000000000000000000000000000000000000000081525081526020016040518060400160405280600781526020017f457863697465640000000000000000000000000000000000000000000000000081525081526020016040518060400160405280600b81526020017f53706f6e7461696e6f757300000000000000000000000000000000000000000081525081526020016040518060400160405280600981526020017f456e657267657469630000000000000000000000000000000000000000000000815250815250600a906006620001bb92919062000714565b506040518060c001604052806040518060400160405280600781526020017f5261696e626f770000000000000000000000000000000000000000000000000081525081526020016040518060400160405280600981526020017f4d6963726f77617665000000000000000000000000000000000000000000000081525081526020016040518060400160405280600681526020017f427269646765000000000000000000000000000000000000000000000000000081525081526020016040518060400160405280600981526020017f48616d627572676572000000000000000000000000000000000000000000000081525081526020016040518060400160405280600781526020017f42696379636c650000000000000000000000000000000000000000000000000081525081526020016040518060400160405280600881526020017f54726f7573657273000000000000000000000000000000000000000000000000815250815250600b9060066200033992919062000714565b506040518060c001604052806040518060400160405280600581526020017f5368656c6600000000000000000000000000000000000000000000000000000081525081526020016040518060400160405280600681526020017f436173746c65000000000000000000000000000000000000000000000000000081525081526020016040518060400160405280600381526020017f426564000000000000000000000000000000000000000000000000000000000081525081526020016040518060400160405280600481526020017f526f61640000000000000000000000000000000000000000000000000000000081525081526020016040518060400160405280600781526020017f596f75724d756d0000000000000000000000000000000000000000000000000081525081526020016040518060400160405280600581526020017f50696c6c73000000000000000000000000000000000000000000000000000000815250815250600c906006620004b792919062000714565b50348015620004c557600080fd5b506040518060400160405280600981526020017f5371756172654e465400000000000000000000000000000000000000000000008152506040518060400160405280600681526020017f535155415245000000000000000000000000000000000000000000000000000081525081600090805190602001906200054a92919062000683565b5080600190805190602001906200056392919062000683565b505050620005b16040518060400160405280601c81526020017f496e6974696174696e6720526f79616c204d696e746572204e46542100000000815250620005b760201b620010481760201c565b62000935565b6200065781604051602401620005ce919062000849565b6040516020818303038152906040527f41304fac000000000000000000000000000000000000000000000000000000007bffffffffffffffffffffffffffffffffffffffffffffffffffffffff19166020820180517bffffffffffffffffffffffffffffffffffffffffffffffffffffffff83818316178352505050506200065a60201b60201c565b50565b60008151905060006a636f6e736f6c652e6c6f679050602083016000808483855afa5050505050565b8280546200069190620008bf565b90600052602060002090601f016020900481019282620006b5576000855562000701565b82601f10620006d057805160ff191683800117855562000701565b8280016001018555821562000701579182015b8281111562000700578251825591602001919060010190620006e3565b5b5090506200071091906200077b565b5090565b82805482825590600052602060002090810192821562000768579160200282015b82811115620007675782518290805190602001906200075692919062000683565b509160200191906001019062000735565b5b5090506200077791906200079a565b5090565b5b80821115620007965760008160009055506001016200077c565b5090565b5b80821115620007be5760008181620007b49190620007c2565b506001016200079b565b5090565b508054620007d090620008bf565b6000825580601f10620007e4575062000805565b601f0160209004906000526020600020908101906200080491906200077b565b5b50565b600062000815826200086d565b62000821818562000878565b93506200083381856020860162000889565b6200083e8162000924565b840191505092915050565b6000602082019050818103600083015262000865818462000808565b905092915050565b600081519050919050565b600082825260208201905092915050565b60005b83811015620008a95780820151818401526020810190506200088c565b83811115620008b9576000848401525b50505050565b60006002820490506001821680620008d857607f821691505b60208210811415620008ef57620008ee620008f5565b5b50919050565b7f4e487b7100000000000000000000000000000000000000000000000000000000600052602260045260246000fd5b6000601f19601f8301169050919050565b61395280620009456000396000f3fe608060405234801561001057600080fd5b506004361061010b5760003560e01c806370a08231116100a2578063a22cb46511610071578063a22cb465146102ca578063b88d4fde146102e6578063c87b56dd14610302578063d90a294314610332578063e985e9c5146103625761010b565b806370a082311461024257806379562c1c146102725780638a97ec2a146102a257806395d89b41146102ac5761010b565b8063095ea7b3116100de578063095ea7b3146101be57806323b872dd146101da57806342842e0e146101f65780636352211e146102125761010b565b806301ffc9a714610110578063060d00f01461014057806306fdde0314610170578063081812fc1461018e575b600080fd5b61012a60048036038101906101259190612474565b610392565b6040516101379190612b8f565b60405180910390f35b61015a600480360381019061015591906124c6565b610474565b6040516101679190612baa565b60405180910390f35b610178610592565b6040516101859190612baa565b60405180910390f35b6101a860048036038101906101a391906124c6565b610624565b6040516101b59190612af1565b60405180910390f35b6101d860048036038101906101d39190612438565b6106a9565b005b6101f460048036038101906101ef9190612332565b6107c1565b005b610210600480360381019061020b9190612332565b610821565b005b61022c600480360381019061022791906124c6565b610841565b6040516102399190612af1565b60405180910390f35b61025c600480360381019061025791906122cd565b6108f3565b6040516102699190612e0a565b60405180910390f35b61028c600480360381019061028791906124c6565b6109ab565b6040516102999190612baa565b60405180910390f35b6102aa610ac9565b005b6102b4610c3a565b6040516102c19190612baa565b60405180910390f35b6102e460048036038101906102df91906123fc565b610ccc565b005b61030060048036038101906102fb9190612381565b610ce2565b005b61031c600480360381019061031791906124c6565b610d44565b6040516103299190612baa565b60405180910390f35b61034c600480360381019061034791906124c6565b610e96565b6040516103599190612baa565b60405180910390f35b61037c600480360381019061037791906122f6565b610fb4565b6040516103899190612b8f565b60405180910390f35b60007f80ac58cd000000000000000000000000000000000000000000000000000000007bffffffffffffffffffffffffffffffffffffffffffffffffffffffff1916827bffffffffffffffffffffffffffffffffffffffffffffffffffffffff1916148061045d57507f5b5e139f000000000000000000000000000000000000000000000000000000007bffffffffffffffffffffffffffffffffffffffffffffffffffffffff1916827bffffffffffffffffffffffffffffffffffffffffffffffffffffffff1916145b8061046d575061046c826110e1565b5b9050919050565b606060006104a86104848461114b565b6040516020016104949190612a3b565b6040516020818303038152906040526112f8565b9050600b80549050816104bb919061314a565b9050600b81815481106104f7577f4e487b7100000000000000000000000000000000000000000000000000000000600052603260045260246000fd5b90600052602060002001805461050c9061309e565b80601f01602080910402602001604051908101604052809291908181526020018280546105389061309e565b80156105855780601f1061055a57610100808354040283529160200191610585565b820191906000526020600020905b81548152906001019060200180831161056857829003601f168201915b5050505050915050919050565b6060600080546105a19061309e565b80601f01602080910402602001604051908101604052809291908181526020018280546105cd9061309e565b801561061a5780601f106105ef5761010080835404028352916020019161061a565b820191906000526020600020905b8154815290600101906020018083116105fd57829003601f168201915b5050505050905090565b600061062f8261132b565b61066e576040517f08c379a000000000000000000000000000000000000000000000000000000000815260040161066590612d8a565b60405180910390fd5b6004600083815260200190815260200160002060009054906101000a900473ffffffffffffffffffffffffffffffffffffffff169050919050565b60006106b482610841565b90508073ffffffffffffffffffffffffffffffffffffffff168373ffffffffffffffffffffffffffffffffffffffff161415610725576040517f08c379a000000000000000000000000000000000000000000000000000000000815260040161071c90612dca565b60405180910390fd5b8073ffffffffffffffffffffffffffffffffffffffff16610744611397565b73ffffffffffffffffffffffffffffffffffffffff16148061077357506107728161076d611397565b610fb4565b5b6107b2576040517f08c379a00000000000000000000000000000000000000000000000000000000081526004016107a990612cca565b60405180910390fd5b6107bc838361139f565b505050565b6107d26107cc611397565b82611458565b610811576040517f08c379a000000000000000000000000000000000000000000000000000000000815260040161080890612dea565b60405180910390fd5b61081c838383611536565b505050565b61083c83838360405180602001604052806000815250610ce2565b505050565b6000806002600084815260200190815260200160002060009054906101000a900473ffffffffffffffffffffffffffffffffffffffff169050600073ffffffffffffffffffffffffffffffffffffffff168173ffffffffffffffffffffffffffffffffffffffff1614156108ea576040517f08c379a00000000000000000000000000000000000000000000000000000000081526004016108e190612d0a565b60405180910390fd5b80915050919050565b60008073ffffffffffffffffffffffffffffffffffffffff168273ffffffffffffffffffffffffffffffffffffffff161415610964576040517f08c379a000000000000000000000000000000000000000000000000000000000815260040161095b90612cea565b60405180910390fd5b600360008373ffffffffffffffffffffffffffffffffffffffff1673ffffffffffffffffffffffffffffffffffffffff168152602001908152602001600020549050919050565b606060006109df6109bb8461114b565b6040516020016109cb9190612a3b565b6040516020818303038152906040526112f8565b9050600c80549050816109f2919061314a565b9050600c8181548110610a2e577f4e487b7100000000000000000000000000000000000000000000000000000000600052603260045260246000fd5b906000526020600020018054610a439061309e565b80601f0160208091040260200160405190810160405280929190818152602001828054610a6f9061309e565b8015610abc5780601f10610a9157610100808354040283529160200191610abc565b820191906000526020600020905b815481529060010190602001808311610a9f57829003601f168201915b5050505050915050919050565b6000610ad5600761179d565b90506000610ae282610e96565b90506000610aef83610474565b90506000610afc846109ab565b90506000838383604051602001610b15939291906129c1565b604051602081830303815290604052905060006009858585604051602001610b4094939291906129f2565b60405160208183030381529060405290506000610b8583610b60846117ab565b604051602001610b71929190612a5d565b6040516020818303038152906040526117ab565b9050600081604051602001610b9a9190612acf565b6040516020818303038152906040529050610bb53389611969565b610bbf8882611987565b610bc960076119fb565b87600881905550610bf36040518060600160405280602681526020016138f7602691398933611a11565b7f8147413d659ccf68a4477ca7d067a3db1a8a2443b41095be6a62f05dfc6113663389600854604051610c2893929190612b58565b60405180910390a15050505050505050565b606060018054610c499061309e565b80601f0160208091040260200160405190810160405280929190818152602001828054610c759061309e565b8015610cc25780601f10610c9757610100808354040283529160200191610cc2565b820191906000526020600020905b815481529060010190602001808311610ca557829003601f168201915b5050505050905090565b610cde610cd7611397565b8383611ab0565b5050565b610cf3610ced611397565b83611458565b610d32576040517f08c379a0000000000000000000000000000000000000000000000000000000008152600401610d2990612dea565b60405180910390fd5b610d3e84848484611c1d565b50505050565b6060610d4f8261132b565b610d8e576040517f08c379a0000000000000000000000000000000000000000000000000000000008152600401610d8590612d6a565b60405180910390fd5b6000600660008481526020019081526020016000208054610dae9061309e565b80601f0160208091040260200160405190810160405280929190818152602001828054610dda9061309e565b8015610e275780601f10610dfc57610100808354040283529160200191610e27565b820191906000526020600020905b815481529060010190602001808311610e0a57829003601f168201915b505050505090506000610e38611c79565b9050600081511415610e4e578192505050610e91565b600082511115610e83578082604051602001610e6b92919061299d565b60405160208183030381529060405292505050610e91565b610e8c84611c90565b925050505b919050565b60606000610eca610ea68461114b565b604051602001610eb69190612aad565b6040516020818303038152906040526112f8565b9050600a8054905081610edd919061314a565b9050600a8181548110610f19577f4e487b7100000000000000000000000000000000000000000000000000000000600052603260045260246000fd5b906000526020600020018054610f2e9061309e565b80601f0160208091040260200160405190810160405280929190818152602001828054610f5a9061309e565b8015610fa75780601f10610f7c57610100808354040283529160200191610fa7565b820191906000526020600020905b815481529060010190602001808311610f8a57829003601f168201915b5050505050915050919050565b6000600560008473ffffffffffffffffffffffffffffffffffffffff1673ffffffffffffffffffffffffffffffffffffffff16815260200190815260200160002060008373ffffffffffffffffffffffffffffffffffffffff1673ffffffffffffffffffffffffffffffffffffffff16815260200190815260200160002060009054906101000a900460ff16905092915050565b6110de8160405160240161105c9190612baa565b6040516020818303038152906040527f41304fac000000000000000000000000000000000000000000000000000000007bffffffffffffffffffffffffffffffffffffffffffffffffffffffff19166020820180517bffffffffffffffffffffffffffffffffffffffffffffffffffffffff8381831617835250505050611d37565b50565b60007f01ffc9a7000000000000000000000000000000000000000000000000000000007bffffffffffffffffffffffffffffffffffffffffffffffffffffffff1916827bffffffffffffffffffffffffffffffffffffffffffffffffffffffff1916149050919050565b60606000821415611193576040518060400160405280600181526020017f300000000000000000000000000000000000000000000000000000000000000081525090506112f3565b600082905060005b600082146111c55780806111ae90613101565b915050600a826111be9190612f29565b915061119b565b60008167ffffffffffffffff811115611207577f4e487b7100000000000000000000000000000000000000000000000000000000600052604160045260246000fd5b6040519080825280601f01601f1916602001820160405280156112395781602001600182028036833780820191505090505b5090505b600085146112ec576001826112529190612fb4565b9150600a85611261919061314a565b603061126d9190612ed3565b60f81b8183815181106112a9577f4e487b7100000000000000000000000000000000000000000000000000000000600052603260045260246000fd5b60200101907effffffffffffffffffffffffffffffffffffffffffffffffffffffffffffff1916908160001a905350600a856112e59190612f29565b945061123d565b8093505050505b919050565b60008160405160200161130b9190612986565b6040516020818303038152906040528051906020012060001c9050919050565b60008073ffffffffffffffffffffffffffffffffffffffff166002600084815260200190815260200160002060009054906101000a900473ffffffffffffffffffffffffffffffffffffffff1673ffffffffffffffffffffffffffffffffffffffff1614159050919050565b600033905090565b816004600083815260200190815260200160002060006101000a81548173ffffffffffffffffffffffffffffffffffffffff021916908373ffffffffffffffffffffffffffffffffffffffff160217905550808273ffffffffffffffffffffffffffffffffffffffff1661141283610841565b73ffffffffffffffffffffffffffffffffffffffff167f8c5be1e5ebec7d5bd14f71427d1e84f3dd0314c0f7b2291e5b200ac8c7c3b92560405160405180910390a45050565b60006114638261132b565b6114a2576040517f08c379a000000000000000000000000000000000000000000000000000000000815260040161149990612caa565b60405180910390fd5b60006114ad83610841565b90508073ffffffffffffffffffffffffffffffffffffffff168473ffffffffffffffffffffffffffffffffffffffff16148061151c57508373ffffffffffffffffffffffffffffffffffffffff1661150484610624565b73ffffffffffffffffffffffffffffffffffffffff16145b8061152d575061152c8185610fb4565b5b91505092915050565b8273ffffffffffffffffffffffffffffffffffffffff1661155682610841565b73ffffffffffffffffffffffffffffffffffffffff16146115ac576040517f08c379a00000000000000000000000000000000000000000000000000000000081526004016115a390612c2a565b60405180910390fd5b600073ffffffffffffffffffffffffffffffffffffffff168273ffffffffffffffffffffffffffffffffffffffff16141561161c576040517f08c379a000000000000000000000000000000000000000000000000000000000815260040161161390612c6a565b60405180910390fd5b611627838383611d60565b61163260008261139f565b6001600360008573ffffffffffffffffffffffffffffffffffffffff1673ffffffffffffffffffffffffffffffffffffffff16815260200190815260200160002060008282546116829190612fb4565b925050819055506001600360008473ffffffffffffffffffffffffffffffffffffffff1673ffffffffffffffffffffffffffffffffffffffff16815260200190815260200160002060008282546116d99190612ed3565b92505081905550816002600083815260200190815260200160002060006101000a81548173ffffffffffffffffffffffffffffffffffffffff021916908373ffffffffffffffffffffffffffffffffffffffff160217905550808273ffffffffffffffffffffffffffffffffffffffff168473ffffffffffffffffffffffffffffffffffffffff167fddf252ad1be2c89b69c2b068fc378daa952ba7f163c4a11628f55a4df523b3ef60405160405180910390a4611798838383611d65565b505050565b600081600001549050919050565b606060008251905060008114156117d45760405180602001604052806000815250915050611964565b600060036002836117e59190612ed3565b6117ef9190612f29565b60046117fb9190612f5a565b9050600060208261180c9190612ed3565b67ffffffffffffffff81111561184b577f4e487b7100000000000000000000000000000000000000000000000000000000600052604160045260246000fd5b6040519080825280601f01601f19166020018201604052801561187d5781602001600182028036833780820191505090505b50905060006040518060600160405280604081526020016138b7604091399050600181016020830160005b868110156119215760038101905062ffffff818a015116603f8160121c168401518060081b905060ff603f83600c1c1686015116810190508060081b905060ff603f8360061c1686015116810190508060081b905060ff603f831686015116810190508060e01b905080845260048401935050506118a8565b50600386066001811461193b576002811461194b57611956565b613d3d60f01b6002830352611956565b603d60f81b60018303525b508484525050819450505050505b919050565b611983828260405180602001604052806000815250611d6a565b5050565b6119908261132b565b6119cf576040517f08c379a00000000000000000000000000000000000000000000000000000000081526004016119c690612d2a565b60405180910390fd5b806006600084815260200190815260200160002090805190602001906119f6929190612159565b505050565b6001816000016000828254019250508190555050565b611aab838383604051602401611a2993929190612bcc565b6040516020818303038152906040527fe3849f79000000000000000000000000000000000000000000000000000000007bffffffffffffffffffffffffffffffffffffffffffffffffffffffff19166020820180517bffffffffffffffffffffffffffffffffffffffffffffffffffffffff8381831617835250505050611d37565b505050565b8173ffffffffffffffffffffffffffffffffffffffff168373ffffffffffffffffffffffffffffffffffffffff161415611b1f576040517f08c379a0000000000000000000000000000000000000000000000000000000008152600401611b1690612c8a565b60405180910390fd5b80600560008573ffffffffffffffffffffffffffffffffffffffff1673ffffffffffffffffffffffffffffffffffffffff16815260200190815260200160002060008473ffffffffffffffffffffffffffffffffffffffff1673ffffffffffffffffffffffffffffffffffffffff16815260200190815260200160002060006101000a81548160ff0219169083151502179055508173ffffffffffffffffffffffffffffffffffffffff168373ffffffffffffffffffffffffffffffffffffffff167f17307eab39ab6107e8899845ad3d59bd9653f200f220920489ca2b5937696c3183604051611c109190612b8f565b60405180910390a3505050565b611c28848484611536565b611c3484848484611dc5565b611c73576040517f08c379a0000000000000000000000000000000000000000000000000000000008152600401611c6a90612c0a565b60405180910390fd5b50505050565b606060405180602001604052806000815250905090565b6060611c9b8261132b565b611cda576040517f08c379a0000000000000000000000000000000000000000000000000000000008152600401611cd190612daa565b60405180910390fd5b6000611ce4611c79565b90506000815111611d045760405180602001604052806000815250611d2f565b80611d0e8461114b565b604051602001611d1f92919061299d565b6040516020818303038152906040525b915050919050565b60008151905060006a636f6e736f6c652e6c6f679050602083016000808483855afa5050505050565b505050565b505050565b611d748383611f5c565b611d816000848484611dc5565b611dc0576040517f08c379a0000000000000000000000000000000000000000000000000000000008152600401611db790612c0a565b60405180910390fd5b505050565b6000611de68473ffffffffffffffffffffffffffffffffffffffff16612136565b15611f4f578373ffffffffffffffffffffffffffffffffffffffff1663150b7a02611e0f611397565b8786866040518563ffffffff1660e01b8152600401611e319493929190612b0c565b602060405180830381600087803b158015611e4b57600080fd5b505af1925050508015611e7c57506040513d601f19601f82011682018060405250810190611e79919061249d565b60015b611eff573d8060008114611eac576040519150601f19603f3d011682016040523d82523d6000602084013e611eb1565b606091505b50600081511415611ef7576040517f08c379a0000000000000000000000000000000000000000000000000000000008152600401611eee90612c0a565b60405180910390fd5b805181602001fd5b63150b7a0260e01b7bffffffffffffffffffffffffffffffffffffffffffffffffffffffff1916817bffffffffffffffffffffffffffffffffffffffffffffffffffffffff191614915050611f54565b600190505b949350505050565b600073ffffffffffffffffffffffffffffffffffffffff168273ffffffffffffffffffffffffffffffffffffffff161415611fcc576040517f08c379a0000000000000000000000000000000000000000000000000000000008152600401611fc390612d4a565b60405180910390fd5b611fd58161132b565b15612015576040517f08c379a000000000000000000000000000000000000000000000000000000000815260040161200c90612c4a565b60405180910390fd5b61202160008383611d60565b6001600360008473ffffffffffffffffffffffffffffffffffffffff1673ffffffffffffffffffffffffffffffffffffffff16815260200190815260200160002060008282546120719190612ed3565b92505081905550816002600083815260200190815260200160002060006101000a81548173ffffffffffffffffffffffffffffffffffffffff021916908373ffffffffffffffffffffffffffffffffffffffff160217905550808273ffffffffffffffffffffffffffffffffffffffff16600073ffffffffffffffffffffffffffffffffffffffff167fddf252ad1be2c89b69c2b068fc378daa952ba7f163c4a11628f55a4df523b3ef60405160405180910390a461213260008383611d65565b5050565b6000808273ffffffffffffffffffffffffffffffffffffffff163b119050919050565b8280546121659061309e565b90600052602060002090601f01602090048101928261218757600085556121ce565b82601f106121a057805160ff19168380011785556121ce565b828001600101855582156121ce579182015b828111156121cd5782518255916020019190600101906121b2565b5b5090506121db91906121df565b5090565b5b808211156121f85760008160009055506001016121e0565b5090565b600061220f61220a84612e4a565b612e25565b90508281526020810184848401111561222757600080fd5b61223284828561305c565b509392505050565b6000813590506122498161385a565b92915050565b60008135905061225e81613871565b92915050565b60008135905061227381613888565b92915050565b60008151905061228881613888565b92915050565b600082601f83011261229f57600080fd5b81356122af8482602086016121fc565b91505092915050565b6000813590506122c78161389f565b92915050565b6000602082840312156122df57600080fd5b60006122ed8482850161223a565b91505092915050565b6000806040838503121561230957600080fd5b60006123178582860161223a565b92505060206123288582860161223a565b9150509250929050565b60008060006060848603121561234757600080fd5b60006123558682870161223a565b93505060206123668682870161223a565b9250506040612377868287016122b8565b9150509250925092565b6000806000806080858703121561239757600080fd5b60006123a58782880161223a565b94505060206123b68782880161223a565b93505060406123c7878288016122b8565b925050606085013567ffffffffffffffff8111156123e457600080fd5b6123f08782880161228e565b91505092959194509250565b6000806040838503121561240f57600080fd5b600061241d8582860161223a565b925050602061242e8582860161224f565b9150509250929050565b6000806040838503121561244b57600080fd5b60006124598582860161223a565b925050602061246a858286016122b8565b9150509250929050565b60006020828403121561248657600080fd5b600061249484828501612264565b91505092915050565b6000602082840312156124af57600080fd5b60006124bd84828501612279565b91505092915050565b6000602082840312156124d857600080fd5b60006124e6848285016122b8565b91505092915050565b6124f881612fe8565b82525050565b61250781612ffa565b82525050565b600061251882612e90565b6125228185612ea6565b935061253281856020860161306b565b61253b81613237565b840191505092915050565b600061255182612e9b565b61255b8185612eb7565b935061256b81856020860161306b565b61257481613237565b840191505092915050565b600061258a82612e9b565b6125948185612ec8565b93506125a481856020860161306b565b80840191505092915050565b600081546125bd8161309e565b6125c78186612ec8565b945060018216600081146125e257600181146125f357612626565b60ff19831686528186019350612626565b6125fc85612e7b565b60005b8381101561261e578154818901526001820191506020810190506125ff565b838801955050505b50505092915050565b600061263c603283612eb7565b915061264782613248565b604082019050919050565b600061265f603e83612ec8565b915061266a82613297565b603e82019050919050565b6000612682602583612eb7565b915061268d826132e6565b604082019050919050565b60006126a5601c83612eb7565b91506126b082613335565b602082019050919050565b60006126c8602483612eb7565b91506126d38261335e565b604082019050919050565b60006126eb601983612eb7565b91506126f6826133ad565b602082019050919050565b600061270e600b83612ec8565b9150612719826133d6565b600b82019050919050565b6000612731602c83612eb7565b915061273c826133ff565b604082019050919050565b6000612754600d83612ec8565b915061275f8261344e565b600d82019050919050565b6000612777603883612eb7565b915061278282613477565b604082019050919050565b600061279a602a83612eb7565b91506127a5826134c6565b604082019050919050565b60006127bd602983612eb7565b91506127c882613515565b604082019050919050565b60006127e0602e83612eb7565b91506127eb82613564565b604082019050919050565b6000612803600283612ec8565b915061280e826135b3565b600282019050919050565b6000612826602083612eb7565b9150612831826135dc565b602082019050919050565b6000612849603183612eb7565b915061285482613605565b604082019050919050565b600061286c602c83612eb7565b915061287782613654565b604082019050919050565b600061288f602f83612eb7565b915061289a826136a3565b604082019050919050565b60006128b2602783612ec8565b91506128bd826136f2565b602782019050919050565b60006128d5600a83612ec8565b91506128e082613741565b600a82019050919050565b60006128f8602183612eb7565b91506129038261376a565b604082019050919050565b600061291b600a83612ec8565b9150612926826137b9565b600a82019050919050565b600061293e601d83612ec8565b9150612949826137e2565b601d82019050919050565b6000612961603183612eb7565b915061296c8261380b565b604082019050919050565b61298081613052565b82525050565b6000612992828461257f565b915081905092915050565b60006129a9828561257f565b91506129b5828461257f565b91508190509392505050565b60006129cd828661257f565b91506129d9828561257f565b91506129e5828461257f565b9150819050949350505050565b60006129fe82876125b0565b9150612a0a828661257f565b9150612a16828561257f565b9150612a22828461257f565b9150612a2d82612747565b915081905095945050505050565b6000612a4682612701565b9150612a52828461257f565b915081905092915050565b6000612a68826128c8565b9150612a74828561257f565b9150612a7f82612652565b9150612a8a826128a5565b9150612a96828461257f565b9150612aa1826127f6565b91508190509392505050565b6000612ab88261290e565b9150612ac4828461257f565b915081905092915050565b6000612ada82612931565b9150612ae6828461257f565b915081905092915050565b6000602082019050612b0660008301846124ef565b92915050565b6000608082019050612b2160008301876124ef565b612b2e60208301866124ef565b612b3b6040830185612977565b8181036060830152612b4d818461250d565b905095945050505050565b6000606082019050612b6d60008301866124ef565b612b7a6020830185612977565b612b876040830184612977565b949350505050565b6000602082019050612ba460008301846124fe565b92915050565b60006020820190508181036000830152612bc48184612546565b905092915050565b60006060820190508181036000830152612be68186612546565b9050612bf56020830185612977565b612c0260408301846124ef565b949350505050565b60006020820190508181036000830152612c238161262f565b9050919050565b60006020820190508181036000830152612c4381612675565b9050919050565b60006020820190508181036000830152612c6381612698565b9050919050565b60006020820190508181036000830152612c83816126bb565b9050919050565b60006020820190508181036000830152612ca3816126de565b9050919050565b60006020820190508181036000830152612cc381612724565b9050919050565b60006020820190508181036000830152612ce38161276a565b9050919050565b60006020820190508181036000830152612d038161278d565b9050919050565b60006020820190508181036000830152612d23816127b0565b9050919050565b60006020820190508181036000830152612d43816127d3565b9050919050565b60006020820190508181036000830152612d6381612819565b9050919050565b60006020820190508181036000830152612d838161283c565b9050919050565b60006020820190508181036000830152612da38161285f565b9050919050565b60006020820190508181036000830152612dc381612882565b9050919050565b60006020820190508181036000830152612de3816128eb565b9050919050565b60006020820190508181036000830152612e0381612954565b9050919050565b6000602082019050612e1f6000830184612977565b92915050565b6000612e2f612e40565b9050612e3b82826130d0565b919050565b6000604051905090565b600067ffffffffffffffff821115612e6557612e64613208565b5b612e6e82613237565b9050602081019050919050565b60008190508160005260206000209050919050565b600081519050919050565b600081519050919050565b600082825260208201905092915050565b600082825260208201905092915050565b600081905092915050565b6000612ede82613052565b9150612ee983613052565b9250827fffffffffffffffffffffffffffffffffffffffffffffffffffffffffffffffff03821115612f1e57612f1d61317b565b5b828201905092915050565b6000612f3482613052565b9150612f3f83613052565b925082612f4f57612f4e6131aa565b5b828204905092915050565b6000612f6582613052565b9150612f7083613052565b9250817fffffffffffffffffffffffffffffffffffffffffffffffffffffffffffffffff0483118215151615612fa957612fa861317b565b5b828202905092915050565b6000612fbf82613052565b9150612fca83613052565b925082821015612fdd57612fdc61317b565b5b828203905092915050565b6000612ff382613032565b9050919050565b60008115159050919050565b60007fffffffff0000000000000000000000000000000000000000000000000000000082169050919050565b600073ffffffffffffffffffffffffffffffffffffffff82169050919050565b6000819050919050565b82818337600083830152505050565b60005b8381101561308957808201518184015260208101905061306e565b83811115613098576000848401525b50505050565b600060028204905060018216806130b657607f821691505b602082108114156130ca576130c96131d9565b5b50919050565b6130d982613237565b810181811067ffffffffffffffff821117156130f8576130f7613208565b5b80604052505050565b600061310c82613052565b91507fffffffffffffffffffffffffffffffffffffffffffffffffffffffffffffffff82141561313f5761313e61317b565b5b600182019050919050565b600061315582613052565b915061316083613052565b9250826131705761316f6131aa565b5b828206905092915050565b7f4e487b7100000000000000000000000000000000000000000000000000000000600052601160045260246000fd5b7f4e487b7100000000000000000000000000000000000000000000000000000000600052601260045260246000fd5b7f4e487b7100000000000000000000000000000000000000000000000000000000600052602260045260246000fd5b7f4e487b7100000000000000000000000000000000000000000000000000000000600052604160045260246000fd5b6000601f19601f8301169050919050565b7f4552433732313a207472616e7366657220746f206e6f6e20455243373231526560008201527f63656976657220696d706c656d656e7465720000000000000000000000000000602082015250565b7f222c20226465736372697074696f6e223a22412077656c6c20776f726465642060008201527f636f6c6c656374696f6e206f6620526f79616c204d696e74204e465473210000602082015250565b7f4552433732313a207472616e736665722066726f6d20696e636f72726563742060008201527f6f776e6572000000000000000000000000000000000000000000000000000000602082015250565b7f4552433732313a20746f6b656e20616c7265616479206d696e74656400000000600082015250565b7f4552433732313a207472616e7366657220746f20746865207a65726f2061646460008201527f7265737300000000000000000000000000000000000000000000000000000000602082015250565b7f4552433732313a20617070726f766520746f2063616c6c657200000000000000600082015250565b7f5345434f4e445f574f5244000000000000000000000000000000000000000000600082015250565b7f4552433732313a206f70657261746f7220717565727920666f72206e6f6e657860008201527f697374656e7420746f6b656e0000000000000000000000000000000000000000602082015250565b7f3c2f746578743e3c2f7376673e00000000000000000000000000000000000000600082015250565b7f4552433732313a20617070726f76652063616c6c6572206973206e6f74206f7760008201527f6e6572206e6f7220617070726f76656420666f7220616c6c0000000000000000602082015250565b7f4552433732313a2062616c616e636520717565727920666f7220746865207a6560008201527f726f206164647265737300000000000000000000000000000000000000000000602082015250565b7f4552433732313a206f776e657220717565727920666f72206e6f6e657869737460008201527f656e7420746f6b656e0000000000000000000000000000000000000000000000602082015250565b7f45524337323155524953746f726167653a2055524920736574206f66206e6f6e60008201527f6578697374656e7420746f6b656e000000000000000000000000000000000000602082015250565b7f227d000000000000000000000000000000000000000000000000000000000000600082015250565b7f4552433732313a206d696e7420746f20746865207a65726f2061646472657373600082015250565b7f45524337323155524953746f726167653a2055524920717565727920666f722060008201527f6e6f6e6578697374656e7420746f6b656e000000000000000000000000000000602082015250565b7f4552433732313a20617070726f76656420717565727920666f72206e6f6e657860008201527f697374656e7420746f6b656e0000000000000000000000000000000000000000602082015250565b7f4552433732314d657461646174613a2055524920717565727920666f72206e6f60008201527f6e6578697374656e7420746f6b656e0000000000000000000000000000000000602082015250565b7f222c2022696d616765223a2022646174613a696d6167652f7376672b786d6c3b60008201527f6261736536342c00000000000000000000000000000000000000000000000000602082015250565b7f7b226e616d65223a202200000000000000000000000000000000000000000000600082015250565b7f4552433732313a20617070726f76616c20746f2063757272656e74206f776e6560008201527f7200000000000000000000000000000000000000000000000000000000000000602082015250565b7f46495253545f574f524400000000000000000000000000000000000000000000600082015250565b7f646174613a6170706c69636174696f6e2f6a736f6e3b6261736536342c000000600082015250565b7f4552433732313a207472616e736665722063616c6c6572206973206e6f74206f60008201527f776e6572206e6f7220617070726f766564000000000000000000000000000000602082015250565b61386381612fe8565b811461386e57600080fd5b50565b61387a81612ffa565b811461388557600080fd5b50565b61389181613006565b811461389c57600080fd5b50565b6138a881613052565b81146138b357600080fd5b5056fe4142434445464748494a4b4c4d4e4f505152535455565758595a6162636465666768696a6b6c6d6e6f707172737475767778797a303132333435363738392b2f416e204e465420772f20494420257320686173206265656e206d696e74656420746f3a202573a2646970667358221220fb4c9e0f1e95357de1e0a2b8f7874e7ca77ef0283798e6cc08ca462fe779b47564736f6c634300080100333c73766720786d6c6e733d27687474703a2f2f7777772e77332e6f72672f323030302f73766727207072657365727665417370656374526174696f3d27784d696e594d696e206d656574272076696577426f783d273020302033353020333530273e3c7374796c653e2e62617365207b2066696c6c3a2077686974653b20666f6e742d66616d696c793a2073657269663b20666f6e742d73697a653a20323470783b207d3c2f7374796c653e3c726563742077696474683d273130302527206865696768743d2731303025272066696c6c3d27626c61636b27202f3e3c7465787420783d273530252720793d273530252720636c6173733d27626173652720646f6d696e616e742d626173656c696e653d276d6964646c652720746578742d616e63686f723d276d6964646c65273e",
  "linkReferences": {},
  "deployedLinkReferences": {}
}